:020000020000FC
:0200000072C0CC
:0200040018954D
:02000800189549
:02000C00189545
:02001000189541
:0200140018953D
:02001800189539
:02001C00189535
:02002000189531
:0200240018952D
:02002800189529
:02002C00189525
:02003000189521
:0200340036C0D4
:02003800189519
:02003C00189515
:020040000EC0F0
:0200440018950D
:02004800189509
:02004C00189505
:02005000189501
:020054001895FD
:020058001895F9
:10005C0018950F930FB70F93CF93DF935F9355279B
:10006C00C0E0D1E009910F3F61F00F9309810A952F
:10007C0031F40F91702B0FEF0A93099102C0098391
:10008C000F915395523071F75F91DF91CF910F9192
:10009C000FBF0F9118950F930FB70F93CF93DF935B
:1000AC005F935527C4E0D1E009910F3F61F00F93A6
:1000BC0008810A9531F40F91802B0FEF0A93099167
:1000CC0002C008830F915395513071F75F91DF9106
:1000DC00CF910F910FBF0F9118950FEF0DBF08E047
:1000EC000EBFE0E0F1E000270193F830E9F7EF3FB5
:1000FC00D9F7EE27FF27002411242224332444248B
:10010C0055246624772488249924AA24BB24CC243F
:10011C00DD24EE24FF240027112722273327442730
:10012C0055276627772788279927AA27BB27CC2707
:10013C00DD2700E800BF04E40AB90BEB0BB904E0BF
:10014C0004B90BEF05B9002707B90FE308B904E0B0
:10015C0005BD01E000936E0002E0C1E8D0E0088329
:10016C0001E0CFE6D0E00883789408D0CDE0D1E070
:10017C000FEF088351D070D02BD0FCCF01E000934F
:10018C00020101E0009300010895CEE0D1E0088166
:10019C000093030102E0009301010895CFE0D1E048
:1001AC0008810093050101E00093040108950027E4
:1001BC0007BD03E804BDCEE0D1E002E00883E5DF33
:1001CC008160406108954F7E002704BD6D7F0895C6
:1001DC0044FF21C080FF1FC071FF1DC07D7F27B56C
:1001EC0061FD0AC02395A9F42FEF6260CEE0D1E047
:1001FC0003E008830AE008C02A9559F46D7FCEE02D
:10020C00D1E002E008830FEFCFE0D1E00883C6DF36
:10021C008E7F27BDBADF089570FF1DC07E7FCDE0B5
:10022C00D1E0552721E0E6E0F1E0088116B1022388
:10023C001223012751F010811395153029F43881C0
:10024C00302738831127486010830191220F539572
:10025C00583059F793DF089543FF0AC0477FCDE02C
:10026C00D1E0088100FF05D002FF0FD004FF07D0BA
:10027C0008955A9B02C05A9801C05A9A08952A9B15
:10028C0002C02A9801C02A9A089544FF02C09BDF3D
:06029C0001C08DDF089592
:00000001FF
